{
  "contractName": "LubyGame",
  "abi": [
    {
      "inputs": [],
      "stateMutability": "nonpayable",
      "type": "constructor"
    },
    {
      "anonymous": false,
      "inputs": [
        {
          "indexed": true,
          "internalType": "address",
          "name": "_owner",
          "type": "address"
        },
        {
          "indexed": true,
          "internalType": "address",
          "name": "_spender",
          "type": "address"
        },
        {
          "indexed": false,
          "internalType": "uint256",
          "name": "_value",
          "type": "uint256"
        }
      ],
      "name": "Approval",
      "type": "event"
    },
    {
      "anonymous": false,
      "inputs": [
        {
          "indexed": false,
          "internalType": "address",
          "name": "from",
          "type": "address"
        },
        {
          "indexed": false,
          "internalType": "address",
          "name": "to",
          "type": "address"
        },
        {
          "indexed": false,
          "internalType": "uint256",
          "name": "amount",
          "type": "uint256"
        }
      ],
      "name": "ClaimBalance",
      "type": "event"
    },
    {
      "anonymous": false,
      "inputs": [
        {
          "indexed": true,
          "internalType": "address",
          "name": "previousOwner",
          "type": "address"
        },
        {
          "indexed": true,
          "internalType": "address",
          "name": "newOwner",
          "type": "address"
        }
      ],
      "name": "OwnershipTransferred",
      "type": "event"
    },
    {
      "anonymous": false,
      "inputs": [
        {
          "indexed": false,
          "internalType": "address",
          "name": "from",
          "type": "address"
        },
        {
          "indexed": false,
          "internalType": "uint256",
          "name": "amount",
          "type": "uint256"
        }
      ],
      "name": "StartGame",
      "type": "event"
    },
    {
      "anonymous": false,
      "inputs": [
        {
          "indexed": true,
          "internalType": "address",
          "name": "_from",
          "type": "address"
        },
        {
          "indexed": true,
          "internalType": "address",
          "name": "_to",
          "type": "address"
        },
        {
          "indexed": false,
          "internalType": "uint256",
          "name": "_value",
          "type": "uint256"
        }
      ],
      "name": "Transfer",
      "type": "event"
    },
    {
      "anonymous": false,
      "inputs": [
        {
          "indexed": false,
          "internalType": "address",
          "name": "from",
          "type": "address"
        },
        {
          "indexed": false,
          "internalType": "address",
          "name": "to",
          "type": "address"
        },
        {
          "indexed": false,
          "internalType": "uint256",
          "name": "amount",
          "type": "uint256"
        }
      ],
      "name": "WithDraw",
      "type": "event"
    },
    {
      "inputs": [],
      "name": "address_contract",
      "outputs": [
        {
          "internalType": "address",
          "name": "",
          "type": "address"
        }
      ],
      "stateMutability": "view",
      "type": "function",
      "constant": true
    },
    {
      "inputs": [
        {
          "internalType": "address",
          "name": "_owner",
          "type": "address"
        }
      ],
      "name": "allowance",
      "outputs": [
        {
          "internalType": "uint256",
          "name": "remaining",
          "type": "uint256"
        }
      ],
      "stateMutability": "view",
      "type": "function",
      "constant": true
    },
    {
      "inputs": [
        {
          "internalType": "address",
          "name": "",
          "type": "address"
        },
        {
          "internalType": "address",
          "name": "",
          "type": "address"
        }
      ],
      "name": "allowed",
      "outputs": [
        {
          "internalType": "uint256",
          "name": "",
          "type": "uint256"
        }
      ],
      "stateMutability": "view",
      "type": "function",
      "constant": true
    },
    {
      "inputs": [
        {
          "internalType": "uint256",
          "name": "_value",
          "type": "uint256"
        }
      ],
      "name": "approve",
      "outputs": [
        {
          "internalType": "bool",
          "name": "success",
          "type": "bool"
        }
      ],
      "stateMutability": "nonpayable",
      "type": "function"
    },
    {
      "inputs": [
        {
          "internalType": "address",
          "name": "_owner",
          "type": "address"
        }
      ],
      "name": "balanceOf",
      "outputs": [
        {
          "internalType": "uint256",
          "name": "balance",
          "type": "uint256"
        }
      ],
      "stateMutability": "view",
      "type": "function",
      "constant": true
    },
    {
      "inputs": [
        {
          "internalType": "address",
          "name": "",
          "type": "address"
        }
      ],
      "name": "balances",
      "outputs": [
        {
          "internalType": "uint256",
          "name": "",
          "type": "uint256"
        }
      ],
      "stateMutability": "view",
      "type": "function",
      "constant": true
    },
    {
      "inputs": [],
      "name": "decimals",
      "outputs": [
        {
          "internalType": "uint8",
          "name": "",
          "type": "uint8"
        }
      ],
      "stateMutability": "view",
      "type": "function",
      "constant": true
    },
    {
      "inputs": [
        {
          "internalType": "address",
          "name": "from",
          "type": "address"
        }
      ],
      "name": "getBalance",
      "outputs": [
        {
          "internalType": "uint256",
          "name": "",
          "type": "uint256"
        }
      ],
      "stateMutability": "view",
      "type": "function",
      "constant": true
    },
    {
      "inputs": [
        {
          "internalType": "address",
          "name": "account",
          "type": "address"
        },
        {
          "internalType": "uint256",
          "name": "amount",
          "type": "uint256"
        }
      ],
      "name": "mint",
      "outputs": [],
      "stateMutability": "nonpayable",
      "type": "function"
    },
    {
      "inputs": [],
      "name": "minter",
      "outputs": [
        {
          "internalType": "address",
          "name": "",
          "type": "address"
        }
      ],
      "stateMutability": "view",
      "type": "function",
      "constant": true
    },
    {
      "inputs": [],
      "name": "name",
      "outputs": [
        {
          "internalType": "string",
          "name": "",
          "type": "string"
        }
      ],
      "stateMutability": "view",
      "type": "function",
      "constant": true
    },
    {
      "inputs": [],
      "name": "owner",
      "outputs": [
        {
          "internalType": "address",
          "name": "",
          "type": "address"
        }
      ],
      "stateMutability": "view",
      "type": "function",
      "constant": true
    },
    {
      "inputs": [],
      "name": "renounceOwnership",
      "outputs": [],
      "stateMutability": "nonpayable",
      "type": "function"
    },
    {
      "inputs": [],
      "name": "symbol",
      "outputs": [
        {
          "internalType": "string",
          "name": "",
          "type": "string"
        }
      ],
      "stateMutability": "view",
      "type": "function",
      "constant": true
    },
    {
      "inputs": [],
      "name": "totalSupply",
      "outputs": [
        {
          "internalType": "uint256",
          "name": "",
          "type": "uint256"
        }
      ],
      "stateMutability": "view",
      "type": "function",
      "constant": true
    },
    {
      "inputs": [
        {
          "internalType": "address",
          "name": "_to",
          "type": "address"
        },
        {
          "internalType": "uint256",
          "name": "_value",
          "type": "uint256"
        }
      ],
      "name": "transfer",
      "outputs": [
        {
          "internalType": "bool",
          "name": "success",
          "type": "bool"
        }
      ],
      "stateMutability": "nonpayable",
      "type": "function"
    },
    {
      "inputs": [
        {
          "internalType": "address",
          "name": "_from",
          "type": "address"
        },
        {
          "internalType": "address",
          "name": "_to",
          "type": "address"
        },
        {
          "internalType": "uint256",
          "name": "_value",
          "type": "uint256"
        }
      ],
      "name": "transferFrom",
      "outputs": [
        {
          "internalType": "bool",
          "name": "success",
          "type": "bool"
        }
      ],
      "stateMutability": "nonpayable",
      "type": "function"
    },
    {
      "inputs": [
        {
          "internalType": "address",
          "name": "newOwner",
          "type": "address"
        }
      ],
      "name": "transferOwnership",
      "outputs": [],
      "stateMutability": "nonpayable",
      "type": "function"
    },
    {
      "inputs": [
        {
          "internalType": "uint256",
          "name": "amount",
          "type": "uint256"
        }
      ],
      "name": "mintLbc",
      "outputs": [
        {
          "internalType": "bool",
          "name": "",
          "type": "bool"
        }
      ],
      "stateMutability": "nonpayable",
      "type": "function"
    },
    {
      "inputs": [
        {
          "internalType": "uint256",
          "name": "amount",
          "type": "uint256"
        }
      ],
      "name": "startGame",
      "outputs": [],
      "stateMutability": "nonpayable",
      "type": "function"
    },
    {
      "inputs": [
        {
          "internalType": "uint256",
          "name": "amount",
          "type": "uint256"
        }
      ],
      "name": "correctAnswer",
      "outputs": [],
      "stateMutability": "nonpayable",
      "type": "function"
    },
    {
      "inputs": [
        {
          "internalType": "uint256",
          "name": "amount",
          "type": "uint256"
        }
      ],
      "name": "incorrectAnswer",
      "outputs": [],
      "stateMutability": "nonpayable",
      "type": "function"
    },
    {
      "inputs": [],
      "name": "withdraw",
      "outputs": [],
      "stateMutability": "nonpayable",
      "type": "function"
    },
    {
      "inputs": [
        {
          "internalType": "uint256",
          "name": "bonus",
          "type": "uint256"
        }
      ],
      "name": "claimBalance",
      "outputs": [],
      "stateMutability": "nonpayable",
      "type": "function"
    },
    {
      "inputs": [],
      "name": "getBalanceIndividual",
      "outputs": [
        {
          "internalType": "uint256",
          "name": "balance",
          "type": "uint256"
        }
      ],
      "stateMutability": "view",
      "type": "function",
      "constant": true
    }
  ],
  "bytecode": "0x60806040523480156200001157600080fd5b50678ac7230489e800006000803073ffffffffffffffffffffffffffffffffffffffff1673ffffffffffffffffffffffffffffffffffffffff16815260200190815260200160002081905550678ac7230489e800006002819055506040518060400160405280600881526020017f4c75627947616d6500000000000000000000000000000000000000000000000081525060039080519060200190620000b9929190620002db565b506012600460006101000a81548160ff021916908360ff1602179055506040518060400160405280600381526020017f4c424300000000000000000000000000000000000000000000000000000000008152506005908051906020019062000123929190620002db565b5033600660006101000a81548173ffffffffffffffffffffffffffffffffffffffff021916908373ffffffffffffffffffffffffffffffffffffffff16021790555030600760006101000a81548173ffffffffffffffffffffffffffffffffffffffff021916908373ffffffffffffffffffffffffffffffffffffffff160217905550620001c6620001ba6200020d60201b60201c565b6200021560201b60201c565b30600a60006101000a81548173ffffffffffffffffffffffffffffffffffffffff021916908373ffffffffffffffffffffffffffffffffffffffff160217905550620003f0565b600033905090565b6000600860009054906101000a900473ffffffffffffffffffffffffffffffffffffffff16905081600860006101000a81548173ffffffffffffffffffffffffffffffffffffffff021916908373ffffffffffffffffffffffffffffffffffffffff1602179055508173ffffffffffffffffffffffffffffffffffffffff168173ffffffffffffffffffffffffffffffffffffffff167f8be0079c531659141344cd1fd0a4f28419497f9722a3daafe3b4186f6b6457e060405160405180910390a35050565b828054620002e990620003ba565b90600052602060002090601f0160209004810192826200030d576000855562000359565b82601f106200032857805160ff191683800117855562000359565b8280016001018555821562000359579182015b82811115620003585782518255916020019190600101906200033b565b5b5090506200036891906200036c565b5090565b5b80821115620003875760008160009055506001016200036d565b5090565b7f4e487b7100000000000000000000000000000000000000000000000000000000600052602260045260246000fd5b60006002820490506001821680620003d357607f821691505b60208210811415620003ea57620003e96200038b565b5b50919050565b6122a380620004006000396000f3fe608060405234801561001057600080fd5b50600436106101735760003560e01c806370a08231116100de578063a9059cbb11610097578063e5ed1d5911610071578063e5ed1d5914610450578063e9fad3961461046c578063f2fde38b14610488578063f8b2cb4f146104a457610173565b8063a9059cbb146103c0578063b759f954146103f0578063d075e09e1461042057610173565b806370a082311461030e578063715018a61461033e57806378fa151f146103485780638da5cb5b1461036657806394eeb5f51461038457806395d89b41146103a257610173565b8063335272b511610130578063335272b5146102505780633ccfd60b1461026c5780633e5beab91461027657806340c10f19146102a657806340d4a9ee146102c25780635c658165146102de57610173565b806306fdde0314610178578063075461721461019657806318160ddd146101b457806323b872dd146101d257806327e235e314610202578063313ce56714610232575b600080fd5b6101806104d4565b60405161018d91906119dd565b60405180910390f35b61019e610562565b6040516101ab9190611a40565b60405180910390f35b6101bc610588565b6040516101c99190611a74565b60405180910390f35b6101ec60048036038101906101e79190611aec565b61058e565b6040516101f99190611b5a565b60405180910390f35b61021c60048036038101906102179190611b75565b610874565b6040516102299190611a74565b60405180910390f35b61023a61088c565b6040516102479190611bbe565b60405180910390f35b61026a60048036038101906102659190611bd9565b61089f565b005b6102746108fe565b005b610290600480360381019061028b9190611b75565b610b3c565b60405161029d9190611a74565b60405180910390f35b6102c060048036038101906102bb9190611c06565b610bc2565b005b6102dc60048036038101906102d79190611bd9565b610d0a565b005b6102f860048036038101906102f39190611c46565b610d69565b6040516103059190611a74565b60405180910390f35b61032860048036038101906103239190611b75565b610d8e565b6040516103359190611a74565b60405180910390f35b610346610dd6565b005b610350610e5e565b60405161035d9190611a74565b60405180910390f35b61036e610ea5565b60405161037b9190611a40565b60405180910390f35b61038c610ecf565b6040516103999190611a40565b60405180910390f35b6103aa610ef5565b6040516103b791906119dd565b60405180910390f35b6103da60048036038101906103d59190611c06565b610f83565b6040516103e79190611b5a565b60405180910390f35b61040a60048036038101906104059190611bd9565b611185565b6040516104179190611b5a565b60405180910390f35b61043a60048036038101906104359190611bd9565b611298565b6040516104479190611b5a565b60405180910390f35b61046a60048036038101906104659190611bd9565b611315565b005b61048660048036038101906104819190611bd9565b61144a565b005b6104a2600480360381019061049d9190611b75565b611684565b005b6104be60048036038101906104b99190611b75565b61177c565b6040516104cb9190611a74565b60405180910390f35b600380546104e190611cb5565b80601f016020809104026020016040519081016040528092919081815260200182805461050d90611cb5565b801561055a5780601f1061052f5761010080835404028352916020019161055a565b820191906000526020600020905b81548152906001019060200180831161053d57829003601f168201915b505050505081565b600660009054906101000a900473ffffffffffffffffffffffffffffffffffffffff1681565b60025481565b600080600160008673ffffffffffffffffffffffffffffffffffffffff1673ffffffffffffffffffffffffffffffffffffffff16815260200190815260200160002060008573ffffffffffffffffffffffffffffffffffffffff1673ffffffffffffffffffffffffffffffffffffffff168152602001908152602001600020549050826000808773ffffffffffffffffffffffffffffffffffffffff1673ffffffffffffffffffffffffffffffffffffffff168152602001908152602001600020541015801561065e5750828110155b61069d576040517f08c379a000000000000000000000000000000000000000000000000000000000815260040161069490611d59565b60405180910390fd5b826000808673ffffffffffffffffffffffffffffffffffffffff1673ffffffffffffffffffffffffffffffffffffffff16815260200190815260200160002060008282546106eb9190611da8565b92505081905550826000808773ffffffffffffffffffffffffffffffffffffffff1673ffffffffffffffffffffffffffffffffffffffff16815260200190815260200160002060008282546107409190611dfe565b925050819055507fffffffffffffffffffffffffffffffffffffffffffffffffffffffffffffffff8110156108035782600160008773ffffffffffffffffffffffffffffffffffffffff1673ffffffffffffffffffffffffffffffffffffffff16815260200190815260200160002060008673ffffffffffffffffffffffffffffffffffffffff1673ffffffffffffffffffffffffffffffffffffffff16815260200190815260200160002060008282546107fb9190611dfe565b925050819055505b8373ffffffffffffffffffffffffffffffffffffffff168573ffffffffffffffffffffffffffffffffffffffff167fddf252ad1be2c89b69c2b068fc378daa952ba7f163c4a11628f55a4df523b3ef856040516108609190611a74565b60405180910390a360019150509392505050565b60006020528060005260406000206000915090505481565b600460009054906101000a900460ff1681565b600081905080600960003373ffffffffffffffffffffffffffffffffffffffff1673ffffffffffffffffffffffffffffffffffffffff16815260200190815260200160002060008282546108f39190611da8565b925050819055505050565b610906611876565b73ffffffffffffffffffffffffffffffffffffffff16610924610ea5565b73ffffffffffffffffffffffffffffffffffffffff161461097a576040517f08c379a000000000000000000000000000000000000000000000000000000000815260040161097190611e7e565b60405180910390fd5b6000600a60009054906101000a900473ffffffffffffffffffffffffffffffffffffffff1673ffffffffffffffffffffffffffffffffffffffff1663f8b2cb4f336040518263ffffffff1660e01b81526004016109d79190611a40565b602060405180830381865afa1580156109f4573d6000803e3d6000fd5b505050506040513d601f19601f82011682018060405250810190610a189190611eb3565b905060008111610a5d576040517f08c379a0000000000000000000000000000000000000000000000000000000008152600401610a5490611f2c565b60405180910390fd5b600a60009054906101000a900473ffffffffffffffffffffffffffffffffffffffff1673ffffffffffffffffffffffffffffffffffffffff1663a9059cbb33836040518363ffffffff1660e01b8152600401610aba929190611f4c565b6020604051808303816000875af1158015610ad9573d6000803e3d6000fd5b505050506040513d601f19601f82011682018060405250810190610afd9190611fa1565b507fec37a407e13e9283023de85016cfda169c84b8f0e8dcda13c92311ab8fee7ad5303383604051610b3193929190611fce565b60405180910390a150565b6000600160008373ffffffffffffffffffffffffffffffffffffffff1673ffffffffffffffffffffffffffffffffffffffff16815260200190815260200160002060003073ffffffffffffffffffffffffffffffffffffffff1673ffffffffffffffffffffffffffffffffffffffff168152602001908152602001600020549050919050565b600073ffffffffffffffffffffffffffffffffffffffff168273ffffffffffffffffffffffffffffffffffffffff161415610c32576040517f08c379a0000000000000000000000000000000000000000000000000000000008152600401610c2990612051565b60405180910390fd5b8060026000828254610c449190611da8565b92505081905550806000808473ffffffffffffffffffffffffffffffffffffffff1673ffffffffffffffffffffffffffffffffffffffff1681526020019081526020016000206000828254610c999190611da8565b925050819055508173ffffffffffffffffffffffffffffffffffffffff16600073ffffffffffffffffffffffffffffffffffffffff167fddf252ad1be2c89b69c2b068fc378daa952ba7f163c4a11628f55a4df523b3ef83604051610cfe9190611a74565b60405180910390a35050565b600081905080600960003373ffffffffffffffffffffffffffffffffffffffff1673ffffffffffffffffffffffffffffffffffffffff1681526020019081526020016000206000828254610d5e9190611dfe565b925050819055505050565b6001602052816000526040600020602052806000526040600020600091509150505481565b60008060008373ffffffffffffffffffffffffffffffffffffffff1673ffffffffffffffffffffffffffffffffffffffff168152602001908152602001600020549050919050565b610dde611876565b73ffffffffffffffffffffffffffffffffffffffff16610dfc610ea5565b73ffffffffffffffffffffffffffffffffffffffff1614610e52576040517f08c379a0000000000000000000000000000000000000000000000000000000008152600401610e4990611e7e565b60405180910390fd5b610e5c600061187e565b565b6000600960003373ffffffffffffffffffffffffffffffffffffffff1673ffffffffffffffffffffffffffffffffffffffff16815260200190815260200160002054905090565b6000600860009054906101000a900473ffffffffffffffffffffffffffffffffffffffff16905090565b600760009054906101000a900473ffffffffffffffffffffffffffffffffffffffff1681565b60058054610f0290611cb5565b80601f0160208091040260200160405190810160405280929190818152602001828054610f2e90611cb5565b8015610f7b5780601f10610f5057610100808354040283529160200191610f7b565b820191906000526020600020905b815481529060010190602001808311610f5e57829003601f168201915b505050505081565b600081600080600760009054906101000a900473ffffffffffffffffffffffffffffffffffffffff1673ffffffffffffffffffffffffffffffffffffffff1673ffffffffffffffffffffffffffffffffffffffff168152602001908152602001600020541015611028576040517f08c379a000000000000000000000000000000000000000000000000000000000815260040161101f906120e3565b60405180910390fd5b81600080600760009054906101000a900473ffffffffffffffffffffffffffffffffffffffff1673ffffffffffffffffffffffffffffffffffffffff1673ffffffffffffffffffffffffffffffffffffffff16815260200190815260200160002060008282546110989190611dfe565b92505081905550816000808573ffffffffffffffffffffffffffffffffffffffff1673ffffffffffffffffffffffffffffffffffffffff16815260200190815260200160002060008282546110ed9190611da8565b925050819055508273ffffffffffffffffffffffffffffffffffffffff16600760009054906101000a900473ffffffffffffffffffffffffffffffffffffffff1673ffffffffffffffffffffffffffffffffffffffff167fddf252ad1be2c89b69c2b068fc378daa952ba7f163c4a11628f55a4df523b3ef846040516111739190611a74565b60405180910390a36001905092915050565b600081600160003373ffffffffffffffffffffffffffffffffffffffff1673ffffffffffffffffffffffffffffffffffffffff16815260200190815260200160002060003073ffffffffffffffffffffffffffffffffffffffff1673ffffffffffffffffffffffffffffffffffffffff16815260200190815260200160002081905550600660009054906101000a900473ffffffffffffffffffffffffffffffffffffffff1673ffffffffffffffffffffffffffffffffffffffff163373ffffffffffffffffffffffffffffffffffffffff167f8c5be1e5ebec7d5bd14f71427d1e84f3dd0314c0f7b2291e5b200ac8c7c3b925846040516112879190611a74565b60405180910390a360019050919050565b6000803090508073ffffffffffffffffffffffffffffffffffffffff166340c10f1933856040518363ffffffff1660e01b81526004016112d9929190611f4c565b600060405180830381600087803b1580156112f357600080fd5b505af1158015611307573d6000803e3d6000fd5b505050506001915050919050565b600a60009054906101000a900473ffffffffffffffffffffffffffffffffffffffff1673ffffffffffffffffffffffffffffffffffffffff166323b872dd3330846040518463ffffffff1660e01b815260040161137493929190611fce565b6020604051808303816000875af1158015611393573d6000803e3d6000fd5b505050506040513d601f19601f820116820180604052508101906113b79190611fa1565b5080600960003373ffffffffffffffffffffffffffffffffffffffff1673ffffffffffffffffffffffffffffffffffffffff16815260200190815260200160002060008282546114079190611da8565b925050819055507f827a821cc7b9cae4c0baef42ee9cdeb791722ab1aa43532c255ea468ea6d5b1d338260405161143f929190611f4c565b60405180910390a150565b6000600960003373ffffffffffffffffffffffffffffffffffffffff1673ffffffffffffffffffffffffffffffffffffffff16815260200190815260200160002054116114cc576040517f08c379a00000000000000000000000000000000000000000000000000000000081526004016114c39061214f565b60405180910390fd5b600a60009054906101000a900473ffffffffffffffffffffffffffffffffffffffff1673ffffffffffffffffffffffffffffffffffffffff1663a9059cbb3383600960003373ffffffffffffffffffffffffffffffffffffffff1673ffffffffffffffffffffffffffffffffffffffff168152602001908152602001600020546115569190611da8565b6040518363ffffffff1660e01b8152600401611573929190611f4c565b6020604051808303816000875af1158015611592573d6000803e3d6000fd5b505050506040513d601f19601f820116820180604052508101906115b69190611fa1565b506000600960003373ffffffffffffffffffffffffffffffffffffffff1673ffffffffffffffffffffffffffffffffffffffff168152602001908152602001600020819055507fe43faf923664f15885a3df13dc48ec1028df5699618c436e8541460ef705ae83303383600960003373ffffffffffffffffffffffffffffffffffffffff1673ffffffffffffffffffffffffffffffffffffffff1681526020019081526020016000205461166a9190611da8565b60405161167993929190611fce565b60405180910390a150565b61168c611876565b73ffffffffffffffffffffffffffffffffffffffff166116aa610ea5565b73ffffffffffffffffffffffffffffffffffffffff1614611700576040517f08c379a00000000000000000000000000000000000000000000000000000000081526004016116f790611e7e565b60405180910390fd5b600073ffffffffffffffffffffffffffffffffffffffff168173ffffffffffffffffffffffffffffffffffffffff161415611770576040517f08c379a0000000000000000000000000000000000000000000000000000000008152600401611767906121e1565b60405180910390fd5b6117798161187e565b50565b6000600660009054906101000a900473ffffffffffffffffffffffffffffffffffffffff1673ffffffffffffffffffffffffffffffffffffffff168273ffffffffffffffffffffffffffffffffffffffff161461180e576040517f08c379a00000000000000000000000000000000000000000000000000000000081526004016118059061224d565b60405180910390fd5b600080600760009054906101000a900473ffffffffffffffffffffffffffffffffffffffff1673ffffffffffffffffffffffffffffffffffffffff1673ffffffffffffffffffffffffffffffffffffffff168152602001908152602001600020549050919050565b600033905090565b6000600860009054906101000a900473ffffffffffffffffffffffffffffffffffffffff16905081600860006101000a81548173ffffffffffffffffffffffffffffffffffffffff021916908373ffffffffffffffffffffffffffffffffffffffff1602179055508173ffffffffffffffffffffffffffffffffffffffff168173ffffffffffffffffffffffffffffffffffffffff167f8be0079c531659141344cd1fd0a4f28419497f9722a3daafe3b4186f6b6457e060405160405180910390a35050565b600081519050919050565b600082825260208201905092915050565b60005b8381101561197e578082015181840152602081019050611963565b8381111561198d576000848401525b50505050565b6000601f19601f8301169050919050565b60006119af82611944565b6119b9818561194f565b93506119c9818560208601611960565b6119d281611993565b840191505092915050565b600060208201905081810360008301526119f781846119a4565b905092915050565b600073ffffffffffffffffffffffffffffffffffffffff82169050919050565b6000611a2a826119ff565b9050919050565b611a3a81611a1f565b82525050565b6000602082019050611a556000830184611a31565b92915050565b6000819050919050565b611a6e81611a5b565b82525050565b6000602082019050611a896000830184611a65565b92915050565b600080fd5b611a9d81611a1f565b8114611aa857600080fd5b50565b600081359050611aba81611a94565b92915050565b611ac981611a5b565b8114611ad457600080fd5b50565b600081359050611ae681611ac0565b92915050565b600080600060608486031215611b0557611b04611a8f565b5b6000611b1386828701611aab565b9350506020611b2486828701611aab565b9250506040611b3586828701611ad7565b9150509250925092565b60008115159050919050565b611b5481611b3f565b82525050565b6000602082019050611b6f6000830184611b4b565b92915050565b600060208284031215611b8b57611b8a611a8f565b5b6000611b9984828501611aab565b91505092915050565b600060ff82169050919050565b611bb881611ba2565b82525050565b6000602082019050611bd36000830184611baf565b92915050565b600060208284031215611bef57611bee611a8f565b5b6000611bfd84828501611ad7565b91505092915050565b60008060408385031215611c1d57611c1c611a8f565b5b6000611c2b85828601611aab565b9250506020611c3c85828601611ad7565b9150509250929050565b60008060408385031215611c5d57611c5c611a8f565b5b6000611c6b85828601611aab565b9250506020611c7c85828601611aab565b9150509250929050565b7f4e487b7100000000000000000000000000000000000000000000000000000000600052602260045260246000fd5b60006002820490506001821680611ccd57607f821691505b60208210811415611ce157611ce0611c86565b5b50919050565b7f746f6b656e2062616c616e6365206f7220616c6c6f77616e6365206973206c6f60008201527f776572207468616e20616d6f756e742072657175657374656400000000000000602082015250565b6000611d4360398361194f565b9150611d4e82611ce7565b604082019050919050565b60006020820190508181036000830152611d7281611d36565b9050919050565b7f4e487b7100000000000000000000000000000000000000000000000000000000600052601160045260246000fd5b6000611db382611a5b565b9150611dbe83611a5b565b9250827fffffffffffffffffffffffffffffffffffffffffffffffffffffffffffffffff03821115611df357611df2611d79565b5b828201905092915050565b6000611e0982611a5b565b9150611e1483611a5b565b925082821015611e2757611e26611d79565b5b828203905092915050565b7f4f776e61626c653a2063616c6c6572206973206e6f7420746865206f776e6572600082015250565b6000611e6860208361194f565b9150611e7382611e32565b602082019050919050565b60006020820190508181036000830152611e9781611e5b565b9050919050565b600081519050611ead81611ac0565b92915050565b600060208284031215611ec957611ec8611a8f565b5b6000611ed784828501611e9e565b91505092915050565b7f42616c616e636520697320300000000000000000000000000000000000000000600082015250565b6000611f16600c8361194f565b9150611f2182611ee0565b602082019050919050565b60006020820190508181036000830152611f4581611f09565b9050919050565b6000604082019050611f616000830185611a31565b611f6e6020830184611a65565b9392505050565b611f7e81611b3f565b8114611f8957600080fd5b50565b600081519050611f9b81611f75565b92915050565b600060208284031215611fb757611fb6611a8f565b5b6000611fc584828501611f8c565b91505092915050565b6000606082019050611fe36000830186611a31565b611ff06020830185611a31565b611ffd6040830184611a65565b949350505050565b7f45524332303a206d696e7420746f20746865207a65726f206164647265737300600082015250565b600061203b601f8361194f565b915061204682612005565b602082019050919050565b6000602082019050818103600083015261206a8161202e565b9050919050565b7f746f6b656e2062616c616e6365206973206c6f776572207468616e207468652060008201527f76616c7565207265717565737465640000000000000000000000000000000000602082015250565b60006120cd602f8361194f565b91506120d882612071565b604082019050919050565b600060208201905081810360008301526120fc816120c0565b9050919050565b7f496e646976696475616c2062616c616e63652069732030210000000000000000600082015250565b600061213960188361194f565b915061214482612103565b602082019050919050565b600060208201905081810360008301526121688161212c565b9050919050565b7f4f776e61626c653a206e6577206f776e657220697320746865207a65726f206160008201527f6464726573730000000000000000000000000000000000000000000000000000602082015250565b60006121cb60268361194f565b91506121d68261216f565b604082019050919050565b600060208201905081810360008301526121fa816121be565b9050919050565b7f4f6e6c79204f776e65722068617665207065726d697373696f6e732100000000600082015250565b6000612237601c8361194f565b915061224282612201565b602082019050919050565b600060208201905081810360008301526122668161222a565b905091905056fea26469706673582212200452e8c898c8b6d94c732dc38127eec867f44ec3ea5d7e033de38a5a5a68670b64736f6c634300080b0033",
  "immutableReferences": {},
  "source": "pragma solidity ^0.8.11;\r\nimport \"@openzeppelin/contracts/access/Ownable.sol\";\r\nimport \"@openzeppelin/contracts/utils/Counters.sol\";\r\n\r\nimport \"hardhat/console.sol\";\r\nimport \"./Bank.sol\";\r\n\r\n// Interface do customToken\r\n\r\ncontract LubyGame is ERC20, Ownable {\r\n\tevent StartGame(address from, uint256 amount);\r\n\tevent WithDraw(address from, address to, uint256 amount);\r\n\tevent ClaimBalance(address from, address to, uint256 amount);\r\n\r\n\tmapping(address => uint256) private individualBalance;\r\n\r\n\tToken bank;\r\n\r\n\tconstructor() {\r\n\t\tbank = Token(address(this));\r\n\t}\r\n\r\n\tfunction mintLbc(uint256 amount) public returns (bool) {\r\n\t\tToken contractAddress = Token(address(this));\r\n\r\n\t\tcontractAddress.mint(msg.sender, amount);\r\n\r\n\t\treturn true;\r\n\t}\r\n\r\n\tfunction startGame(uint256 amount) public {\r\n\t\tbank.transferFrom(msg.sender, address(this), amount);\r\n\r\n\t\tindividualBalance[msg.sender] += amount;\r\n\r\n\t\temit StartGame(msg.sender, amount);\r\n\t}\r\n\r\n\tfunction correctAnswer(uint256 amount) public virtual {\r\n\t\tuint256 value = amount;\r\n\r\n\t\tindividualBalance[msg.sender] += value;\r\n\t}\r\n\r\n\tfunction incorrectAnswer(uint256 amount) public virtual {\r\n\t\tuint256 value = amount;\r\n\r\n\t\tindividualBalance[msg.sender] -= value;\r\n\t}\r\n\r\n\tfunction withdraw() public onlyOwner {\r\n\t\tuint256 balance = bank.getBalance(msg.sender);\r\n\t\trequire(balance > 0, \"Balance is 0\");\r\n\r\n\t\tbank.transfer(msg.sender, balance);\r\n\r\n\t\temit WithDraw(address(this), msg.sender, balance);\r\n\t}\r\n\r\n\tfunction claimBalance(uint256 bonus) public {\r\n\t\trequire(individualBalance[msg.sender] > 0, \"Individual balance is 0!\");\r\n\r\n\t\tbank.transfer(msg.sender, individualBalance[msg.sender] + bonus);\r\n\r\n\t\tindividualBalance[msg.sender] = 0;\r\n\r\n\t\temit ClaimBalance(\r\n\t\t\taddress(this),\r\n\t\t\tmsg.sender,\r\n\t\t\tindividualBalance[msg.sender] + bonus\r\n\t\t);\r\n\t}\r\n\r\n\tfunction getBalanceIndividual() public view returns (uint256 balance) {\r\n\t\treturn individualBalance[msg.sender];\r\n\t}\r\n}\r\n",
  "sourcePath": "F:\\LabLuby\\Blockchain_Crypto_LubyGame\\contracts\\LubyCoin\\LubyGame.sol",
  "compiler": {
    "name": "solc",
    "version": "0.8.11+commit.d7f03943.Emscripten.clang"
  },
  "schemaVersion": "3.4.10",
  "updatedAt": "2022-10-24T15:17:11.699Z",
  "networkType": "ethereum",
  "devdoc": {
    "kind": "dev",
    "methods": {
      "allowance(address)": {
        "params": {
          "_owner": "The address of the account owning tokens"
        },
        "returns": {
          "remaining": "Amount of remaining tokens allowed to spent"
        }
      },
      "approve(uint256)": {
        "params": {
          "_value": "The amount of wei to be approved for transfer"
        },
        "returns": {
          "success": "Whether the approval was successful or not"
        }
      },
      "owner()": {
        "details": "Returns the address of the current owner."
      },
      "renounceOwnership()": {
        "details": "Leaves the contract without owner. It will not be possible to call `onlyOwner` functions anymore. Can only be called by the current owner. NOTE: Renouncing ownership will leave the contract without an owner, thereby removing any functionality that is only available to the owner."
      },
      "transfer(address,uint256)": {
        "params": {
          "_to": "The address of the recipient",
          "_value": "The amount of token to be transferred"
        },
        "returns": {
          "success": "Whether the transfer was successful or not"
        }
      },
      "transferFrom(address,address,uint256)": {
        "params": {
          "_from": "The address of the sender",
          "_to": "The address of the recipient",
          "_value": "The amount of token to be transferred"
        },
        "returns": {
          "success": "Whether the transfer was successful or not"
        }
      },
      "transferOwnership(address)": {
        "details": "Transfers ownership of the contract to a new account (`newOwner`). Can only be called by the current owner."
      }
    },
    "version": 1
  },
  "userdoc": {
    "kind": "user",
    "methods": {
      "transfer(address,uint256)": {
        "notice": "send `_value` token to `_to` from `msg.sender`"
      },
      "transferFrom(address,address,uint256)": {
        "notice": "send `_value` token to `_to` from `_from` on the condition it is approved by `_from`"
      }
    },
    "version": 1
  }
}