{
  "contractName": "NewNFT",
  "abi": [
    {
      "inputs": [],
      "stateMutability": "nonpayable",
      "type": "constructor"
    },
    {
      "anonymous": false,
      "inputs": [
        {
          "indexed": true,
          "internalType": "address",
          "name": "owner",
          "type": "address"
        },
        {
          "indexed": true,
          "internalType": "address",
          "name": "approved",
          "type": "address"
        },
        {
          "indexed": true,
          "internalType": "uint256",
          "name": "tokenId",
          "type": "uint256"
        }
      ],
      "name": "Approval",
      "type": "event"
    },
    {
      "anonymous": false,
      "inputs": [
        {
          "indexed": true,
          "internalType": "address",
          "name": "owner",
          "type": "address"
        },
        {
          "indexed": true,
          "internalType": "address",
          "name": "operator",
          "type": "address"
        },
        {
          "indexed": false,
          "internalType": "bool",
          "name": "approved",
          "type": "bool"
        }
      ],
      "name": "ApprovalForAll",
      "type": "event"
    },
    {
      "anonymous": false,
      "inputs": [
        {
          "indexed": true,
          "internalType": "address",
          "name": "previousOwner",
          "type": "address"
        },
        {
          "indexed": true,
          "internalType": "address",
          "name": "newOwner",
          "type": "address"
        }
      ],
      "name": "OwnershipTransferred",
      "type": "event"
    },
    {
      "anonymous": false,
      "inputs": [
        {
          "indexed": true,
          "internalType": "address",
          "name": "from",
          "type": "address"
        },
        {
          "indexed": true,
          "internalType": "address",
          "name": "to",
          "type": "address"
        },
        {
          "indexed": true,
          "internalType": "uint256",
          "name": "tokenId",
          "type": "uint256"
        }
      ],
      "name": "Transfer",
      "type": "event"
    },
    {
      "inputs": [],
      "name": "MAX_SUPPLY",
      "outputs": [
        {
          "internalType": "uint256",
          "name": "",
          "type": "uint256"
        }
      ],
      "stateMutability": "view",
      "type": "function",
      "constant": true
    },
    {
      "inputs": [
        {
          "internalType": "address",
          "name": "to",
          "type": "address"
        },
        {
          "internalType": "uint256",
          "name": "tokenId",
          "type": "uint256"
        }
      ],
      "name": "approve",
      "outputs": [],
      "stateMutability": "nonpayable",
      "type": "function"
    },
    {
      "inputs": [
        {
          "internalType": "address",
          "name": "owner",
          "type": "address"
        }
      ],
      "name": "balanceOf",
      "outputs": [
        {
          "internalType": "uint256",
          "name": "",
          "type": "uint256"
        }
      ],
      "stateMutability": "view",
      "type": "function",
      "constant": true
    },
    {
      "inputs": [],
      "name": "balances",
      "outputs": [
        {
          "internalType": "uint256",
          "name": "",
          "type": "uint256"
        }
      ],
      "stateMutability": "view",
      "type": "function",
      "constant": true
    },
    {
      "inputs": [
        {
          "internalType": "uint256",
          "name": "tokenId",
          "type": "uint256"
        }
      ],
      "name": "getApproved",
      "outputs": [
        {
          "internalType": "address",
          "name": "",
          "type": "address"
        }
      ],
      "stateMutability": "view",
      "type": "function",
      "constant": true
    },
    {
      "inputs": [
        {
          "internalType": "address",
          "name": "owner",
          "type": "address"
        },
        {
          "internalType": "address",
          "name": "operator",
          "type": "address"
        }
      ],
      "name": "isApprovedForAll",
      "outputs": [
        {
          "internalType": "bool",
          "name": "",
          "type": "bool"
        }
      ],
      "stateMutability": "view",
      "type": "function",
      "constant": true
    },
    {
      "inputs": [],
      "name": "minRate",
      "outputs": [
        {
          "internalType": "uint256",
          "name": "",
          "type": "uint256"
        }
      ],
      "stateMutability": "view",
      "type": "function",
      "constant": true
    },
    {
      "inputs": [],
      "name": "minter",
      "outputs": [
        {
          "internalType": "address",
          "name": "",
          "type": "address"
        }
      ],
      "stateMutability": "view",
      "type": "function",
      "constant": true
    },
    {
      "inputs": [],
      "name": "name",
      "outputs": [
        {
          "internalType": "string",
          "name": "",
          "type": "string"
        }
      ],
      "stateMutability": "view",
      "type": "function",
      "constant": true
    },
    {
      "inputs": [],
      "name": "owner",
      "outputs": [
        {
          "internalType": "address",
          "name": "",
          "type": "address"
        }
      ],
      "stateMutability": "view",
      "type": "function",
      "constant": true
    },
    {
      "inputs": [
        {
          "internalType": "uint256",
          "name": "tokenId",
          "type": "uint256"
        }
      ],
      "name": "ownerOf",
      "outputs": [
        {
          "internalType": "address",
          "name": "",
          "type": "address"
        }
      ],
      "stateMutability": "view",
      "type": "function",
      "constant": true
    },
    {
      "inputs": [],
      "name": "renounceOwnership",
      "outputs": [],
      "stateMutability": "nonpayable",
      "type": "function"
    },
    {
      "inputs": [
        {
          "internalType": "address",
          "name": "from",
          "type": "address"
        },
        {
          "internalType": "address",
          "name": "to",
          "type": "address"
        },
        {
          "internalType": "uint256",
          "name": "tokenId",
          "type": "uint256"
        }
      ],
      "name": "safeTransferFrom",
      "outputs": [],
      "stateMutability": "nonpayable",
      "type": "function"
    },
    {
      "inputs": [
        {
          "internalType": "address",
          "name": "from",
          "type": "address"
        },
        {
          "internalType": "address",
          "name": "to",
          "type": "address"
        },
        {
          "internalType": "uint256",
          "name": "tokenId",
          "type": "uint256"
        },
        {
          "internalType": "bytes",
          "name": "_data",
          "type": "bytes"
        }
      ],
      "name": "safeTransferFrom",
      "outputs": [],
      "stateMutability": "nonpayable",
      "type": "function"
    },
    {
      "inputs": [
        {
          "internalType": "address",
          "name": "operator",
          "type": "address"
        },
        {
          "internalType": "bool",
          "name": "approved",
          "type": "bool"
        }
      ],
      "name": "setApprovalForAll",
      "outputs": [],
      "stateMutability": "nonpayable",
      "type": "function"
    },
    {
      "inputs": [],
      "name": "symbol",
      "outputs": [
        {
          "internalType": "string",
          "name": "",
          "type": "string"
        }
      ],
      "stateMutability": "view",
      "type": "function",
      "constant": true
    },
    {
      "inputs": [
        {
          "internalType": "uint256",
          "name": "index",
          "type": "uint256"
        }
      ],
      "name": "tokenByIndex",
      "outputs": [
        {
          "internalType": "uint256",
          "name": "",
          "type": "uint256"
        }
      ],
      "stateMutability": "view",
      "type": "function",
      "constant": true
    },
    {
      "inputs": [
        {
          "internalType": "address",
          "name": "owner",
          "type": "address"
        },
        {
          "internalType": "uint256",
          "name": "index",
          "type": "uint256"
        }
      ],
      "name": "tokenOfOwnerByIndex",
      "outputs": [
        {
          "internalType": "uint256",
          "name": "",
          "type": "uint256"
        }
      ],
      "stateMutability": "view",
      "type": "function",
      "constant": true
    },
    {
      "inputs": [],
      "name": "totalSupply",
      "outputs": [
        {
          "internalType": "uint256",
          "name": "",
          "type": "uint256"
        }
      ],
      "stateMutability": "view",
      "type": "function",
      "constant": true
    },
    {
      "inputs": [
        {
          "internalType": "address",
          "name": "from",
          "type": "address"
        },
        {
          "internalType": "address",
          "name": "to",
          "type": "address"
        },
        {
          "internalType": "uint256",
          "name": "tokenId",
          "type": "uint256"
        }
      ],
      "name": "transferFrom",
      "outputs": [],
      "stateMutability": "nonpayable",
      "type": "function"
    },
    {
      "inputs": [
        {
          "internalType": "address",
          "name": "newOwner",
          "type": "address"
        }
      ],
      "name": "transferOwnership",
      "outputs": [],
      "stateMutability": "nonpayable",
      "type": "function"
    },
    {
      "inputs": [
        {
          "internalType": "string",
          "name": "baseURI_",
          "type": "string"
        }
      ],
      "name": "setBaseURI",
      "outputs": [],
      "stateMutability": "nonpayable",
      "type": "function"
    },
    {
      "inputs": [
        {
          "internalType": "address",
          "name": "to",
          "type": "address"
        },
        {
          "internalType": "string",
          "name": "tokenURI_",
          "type": "string"
        }
      ],
      "name": "safeMint",
      "outputs": [],
      "stateMutability": "payable",
      "type": "function",
      "payable": true
    },
    {
      "inputs": [
        {
          "internalType": "uint256",
          "name": "tokenId",
          "type": "uint256"
        }
      ],
      "name": "tokenURI",
      "outputs": [
        {
          "internalType": "string",
          "name": "",
          "type": "string"
        }
      ],
      "stateMutability": "view",
      "type": "function",
      "constant": true
    },
    {
      "inputs": [
        {
          "internalType": "bytes4",
          "name": "interfaceId",
          "type": "bytes4"
        }
      ],
      "name": "supportsInterface",
      "outputs": [
        {
          "internalType": "bool",
          "name": "",
          "type": "bool"
        }
      ],
      "stateMutability": "view",
      "type": "function",
      "constant": true
    },
    {
      "inputs": [],
      "name": "withdraw",
      "outputs": [],
      "stateMutability": "nonpayable",
      "type": "function"
    },
    {
      "inputs": [
        {
          "internalType": "uint256",
          "name": "tokenId",
          "type": "uint256"
        }
      ],
      "name": "buyNFT",
      "outputs": [],
      "stateMutability": "payable",
      "type": "function",
      "payable": true
    }
  ],
  "bytecode": "0x60806040526611c37937e080006010556127106011553480156200002257600080fd5b506040518060400160405280600d81526020017f4152204e4654204272617a696c000000000000000000000000000000000000008152506040518060400160405280600281526020017f41520000000000000000000000000000000000000000000000000000000000008152508160009080519060200190620000a7929190620001f8565b508060019080519060200190620000c0929190620001f8565b505050620000e3620000d76200012a60201b60201c565b6200013260201b60201c565b33600e60006101000a81548173ffffffffffffffffffffffffffffffffffffffff021916908373ffffffffffffffffffffffffffffffffffffffff1602179055506200030d565b600033905090565b6000600a60009054906101000a900473ffffffffffffffffffffffffffffffffffffffff16905081600a60006101000a81548173ffffffffffffffffffffffffffffffffffffffff021916908373ffffffffffffffffffffffffffffffffffffffff1602179055508173ffffffffffffffffffffffffffffffffffffffff168173ffffffffffffffffffffffffffffffffffffffff167f8be0079c531659141344cd1fd0a4f28419497f9722a3daafe3b4186f6b6457e060405160405180910390a35050565b8280546200020690620002d7565b90600052602060002090601f0160209004810192826200022a576000855562000276565b82601f106200024557805160ff191683800117855562000276565b8280016001018555821562000276579182015b828111156200027557825182559160200191906001019062000258565b5b50905062000285919062000289565b5090565b5b80821115620002a45760008160009055506001016200028a565b5090565b7f4e487b7100000000000000000000000000000000000000000000000000000000600052602260045260246000fd5b60006002820490506001821680620002f057607f821691505b60208210811415620003075762000306620002a8565b5b50919050565b613caf806200031d6000396000f3fe60806040526004361061019c5760003560e01c806351ed8288116100ec57806395d89b411161008a578063c87b56dd11610064578063c87b56dd146105a7578063d204c45e146105e4578063e985e9c514610600578063f2fde38b1461063d5761019c565b806395d89b411461052a578063a22cb46514610555578063b88d4fde1461057e5761019c565b806370a08231116100c657806370a0823114610480578063715018a6146104bd5780637bb98a68146104d45780638da5cb5b146104ff5761019c565b806351ed8288146103fe57806355f804b31461041a5780636352211e146104435761019c565b806318160ddd1161015957806332cb6b0c1161013357806332cb6b0c146103565780633ccfd60b1461038157806342842e0e146103985780634f6ccce7146103c15761019c565b806318160ddd146102c557806323b872dd146102f05780632f745c59146103195761019c565b806301ffc9a7146101a157806306fdde03146101de5780630754617214610209578063081812fc14610234578063095ea7b3146102715780630cb604431461029a575b600080fd5b3480156101ad57600080fd5b506101c860048036038101906101c39190612762565b610666565b6040516101d591906127aa565b60405180910390f35b3480156101ea57600080fd5b506101f3610678565b604051610200919061285e565b60405180910390f35b34801561021557600080fd5b5061021e61070a565b60405161022b91906128c1565b60405180910390f35b34801561024057600080fd5b5061025b60048036038101906102569190612912565b610730565b60405161026891906128c1565b60405180910390f35b34801561027d57600080fd5b506102986004803603810190610293919061296b565b6107b5565b005b3480156102a657600080fd5b506102af6108cd565b6040516102bc91906129ba565b60405180910390f35b3480156102d157600080fd5b506102da6108d3565b6040516102e791906129ba565b60405180910390f35b3480156102fc57600080fd5b50610317600480360381019061031291906129d5565b6108e0565b005b34801561032557600080fd5b50610340600480360381019061033b919061296b565b610940565b60405161034d91906129ba565b60405180910390f35b34801561036257600080fd5b5061036b6109e5565b60405161037891906129ba565b60405180910390f35b34801561038d57600080fd5b506103966109eb565b005b3480156103a457600080fd5b506103bf60048036038101906103ba91906129d5565b610afe565b005b3480156103cd57600080fd5b506103e860048036038101906103e39190612912565b610b1e565b6040516103f591906129ba565b60405180910390f35b61041860048036038101906104139190612912565b610b8f565b005b34801561042657600080fd5b50610441600480360381019061043c9190612b5d565b610c66565b005b34801561044f57600080fd5b5061046a60048036038101906104659190612912565b610cfc565b60405161047791906128c1565b60405180910390f35b34801561048c57600080fd5b506104a760048036038101906104a29190612ba6565b610dae565b6040516104b491906129ba565b60405180910390f35b3480156104c957600080fd5b506104d2610e66565b005b3480156104e057600080fd5b506104e9610eee565b6040516104f691906129ba565b60405180910390f35b34801561050b57600080fd5b50610514610ef4565b60405161052191906128c1565b60405180910390f35b34801561053657600080fd5b5061053f610f1e565b60405161054c919061285e565b60405180910390f35b34801561056157600080fd5b5061057c60048036038101906105779190612bff565b610fb0565b005b34801561058a57600080fd5b506105a560048036038101906105a09190612ce0565b610fc6565b005b3480156105b357600080fd5b506105ce60048036038101906105c99190612912565b611028565b6040516105db919061285e565b60405180910390f35b6105fe60048036038101906105f99190612d63565b611193565b005b34801561060c57600080fd5b5061062760048036038101906106229190612dbf565b6112a4565b60405161063491906127aa565b60405180910390f35b34801561064957600080fd5b50610664600480360381019061065f9190612ba6565b611338565b005b600061067182611430565b9050919050565b60606000805461068790612e2e565b80601f01602080910402602001604051908101604052809291908181526020018280546106b390612e2e565b80156107005780601f106106d557610100808354040283529160200191610700565b820191906000526020600020905b8154815290600101906020018083116106e357829003601f168201915b5050505050905090565b600e60009054906101000a900473ffffffffffffffffffffffffffffffffffffffff1681565b600061073b826114aa565b61077a576040517f08c379a000000000000000000000000000000000000000000000000000000000815260040161077190612ed2565b60405180910390fd5b6004600083815260200190815260200160002060009054906101000a900473ffffffffffffffffffffffffffffffffffffffff169050919050565b60006107c082610cfc565b90508073ffffffffffffffffffffffffffffffffffffffff168373ffffffffffffffffffffffffffffffffffffffff161415610831576040517f08c379a000000000000000000000000000000000000000000000000000000000815260040161082890612f64565b60405180910390fd5b8073ffffffffffffffffffffffffffffffffffffffff16610850611516565b73ffffffffffffffffffffffffffffffffffffffff16148061087f575061087e81610879611516565b6112a4565b5b6108be576040517f08c379a00000000000000000000000000000000000000000000000000000000081526004016108b590612ff6565b60405180910390fd5b6108c8838361151e565b505050565b60105481565b6000600880549050905090565b6108f16108eb611516565b826115d7565b610930576040517f08c379a000000000000000000000000000000000000000000000000000000000815260040161092790613088565b60405180910390fd5b61093b8383836116b5565b505050565b600061094b83610dae565b821061098c576040517f08c379a00000000000000000000000000000000000000000000000000000000081526004016109839061311a565b60405180910390fd5b600660008473ffffffffffffffffffffffffffffffffffffffff1673ffffffffffffffffffffffffffffffffffffffff168152602001908152602001600020600083815260200190815260200160002054905092915050565b60115481565b6109f3611516565b73ffffffffffffffffffffffffffffffffffffffff16610a11610ef4565b73ffffffffffffffffffffffffffffffffffffffff1614610a67576040517f08c379a0000000000000000000000000000000000000000000000000000000008152600401610a5e90613186565b60405180910390fd5b6000600f5411610aac576040517f08c379a0000000000000000000000000000000000000000000000000000000008152600401610aa3906131f2565b60405180910390fd5b610ab4610ef4565b73ffffffffffffffffffffffffffffffffffffffff166108fc600f549081150290604051600060405180830381858888f19350505050158015610afb573d6000803e3d6000fd5b50565b610b1983838360405180602001604052806000815250610fc6565b505050565b6000610b286108d3565b8210610b69576040517f08c379a0000000000000000000000000000000000000000000000000000000008152600401610b6090613284565b60405180910390fd5b60088281548110610b7d57610b7c6132a4565b5b90600052602060002001549050919050565b610b9930826115d7565b610bd8576040517f08c379a0000000000000000000000000000000000000000000000000000000008152600401610bcf90613088565b60405180910390fd5b6000600234610be79190613331565b90506000610bf483610cfc565b9050610c018133856116b5565b81600f6000828254610c139190613362565b925050819055508073ffffffffffffffffffffffffffffffffffffffff166108fc839081150290604051600060405180830381858888f19350505050158015610c60573d6000803e3d6000fd5b50505050565b610c6e611516565b73ffffffffffffffffffffffffffffffffffffffff16610c8c610ef4565b73ffffffffffffffffffffffffffffffffffffffff1614610ce2576040517f08c379a0000000000000000000000000000000000000000000000000000000008152600401610cd990613186565b60405180910390fd5b80600d9080519060200190610cf8929190612653565b5050565b6000806002600084815260200190815260200160002060009054906101000a900473ffffffffffffffffffffffffffffffffffffffff169050600073ffffffffffffffffffffffffffffffffffffffff168173ffffffffffffffffffffffffffffffffffffffff161415610da5576040517f08c379a0000000000000000000000000000000000000000000000000000000008152600401610d9c9061342a565b60405180910390fd5b80915050919050565b60008073ffffffffffffffffffffffffffffffffffffffff168273ffffffffffffffffffffffffffffffffffffffff161415610e1f576040517f08c379a0000000000000000000000000000000000000000000000000000000008152600401610e16906134bc565b60405180910390fd5b600360008373ffffffffffffffffffffffffffffffffffffffff1673ffffffffffffffffffffffffffffffffffffffff168152602001908152602001600020549050919050565b610e6e611516565b73ffffffffffffffffffffffffffffffffffffffff16610e8c610ef4565b73ffffffffffffffffffffffffffffffffffffffff1614610ee2576040517f08c379a0000000000000000000000000000000000000000000000000000000008152600401610ed990613186565b60405180910390fd5b610eec600061191c565b565b600f5481565b6000600a60009054906101000a900473ffffffffffffffffffffffffffffffffffffffff16905090565b606060018054610f2d90612e2e565b80601f0160208091040260200160405190810160405280929190818152602001828054610f5990612e2e565b8015610fa65780601f10610f7b57610100808354040283529160200191610fa6565b820191906000526020600020905b815481529060010190602001808311610f8957829003601f168201915b5050505050905090565b610fc2610fbb611516565b83836119e2565b5050565b610fd7610fd1611516565b836115d7565b611016576040517f08c379a000000000000000000000000000000000000000000000000000000000815260040161100d90613088565b60405180910390fd5b61102284848484611b4f565b50505050565b6060611033826114aa565b611072576040517f08c379a00000000000000000000000000000000000000000000000000000000081526004016110699061354e565b60405180910390fd5b6000600c6000848152602001908152602001600020805461109290612e2e565b80601f01602080910402602001604051908101604052809291908181526020018280546110be90612e2e565b801561110b5780601f106110e05761010080835404028352916020019161110b565b820191906000526020600020905b8154815290600101906020018083116110ee57829003601f168201915b50505050509050600061111c611bab565b905060008151141561113257819250505061118e565b60008251111561116757808260405160200161114f9291906135aa565b6040516020818303038152906040529250505061118e565b808460405160200161117a9291906135ef565b604051602081830303815290604052925050505b919050565b61119b611516565b73ffffffffffffffffffffffffffffffffffffffff166111b9610ef4565b73ffffffffffffffffffffffffffffffffffffffff161461120f576040517f08c379a000000000000000000000000000000000000000000000000000000000815260040161120690613186565b60405180910390fd5b60115461121a6108d3565b1061125a576040517f08c379a000000000000000000000000000000000000000000000000000000000815260040161125190613663565b60405180910390fd5b611264600b611c3d565b6000611270600b611c53565b905061127c8382611c61565b6112868183611c7f565b34600f60008282546112989190613362565b92505081905550505050565b6000600560008473ffffffffffffffffffffffffffffffffffffffff1673ffffffffffffffffffffffffffffffffffffffff16815260200190815260200160002060008373ffffffffffffffffffffffffffffffffffffffff1673ffffffffffffffffffffffffffffffffffffffff16815260200190815260200160002060009054906101000a900460ff16905092915050565b611340611516565b73ffffffffffffffffffffffffffffffffffffffff1661135e610ef4565b73ffffffffffffffffffffffffffffffffffffffff16146113b4576040517f08c379a00000000000000000000000000000000000000000000000000000000081526004016113ab90613186565b60405180910390fd5b600073ffffffffffffffffffffffffffffffffffffffff168173ffffffffffffffffffffffffffffffffffffffff161415611424576040517f08c379a000000000000000000000000000000000000000000000000000000000815260040161141b906136f5565b60405180910390fd5b61142d8161191c565b50565b60007f780e9d63000000000000000000000000000000000000000000000000000000007bffffffffffffffffffffffffffffffffffffffffffffffffffffffff1916827bffffffffffffffffffffffffffffffffffffffffffffffffffffffff191614806114a357506114a282611cf3565b5b9050919050565b60008073ffffffffffffffffffffffffffffffffffffffff166002600084815260200190815260200160002060009054906101000a900473ffffffffffffffffffffffffffffffffffffffff1673ffffffffffffffffffffffffffffffffffffffff1614159050919050565b600033905090565b816004600083815260200190815260200160002060006101000a81548173ffffffffffffffffffffffffffffffffffffffff021916908373ffffffffffffffffffffffffffffffffffffffff160217905550808273ffffffffffffffffffffffffffffffffffffffff1661159183610cfc565b73ffffffffffffffffffffffffffffffffffffffff167f8c5be1e5ebec7d5bd14f71427d1e84f3dd0314c0f7b2291e5b200ac8c7c3b92560405160405180910390a45050565b60006115e2826114aa565b611621576040517f08c379a000000000000000000000000000000000000000000000000000000000815260040161161890613787565b60405180910390fd5b600061162c83610cfc565b90508073ffffffffffffffffffffffffffffffffffffffff168473ffffffffffffffffffffffffffffffffffffffff16148061169b57508373ffffffffffffffffffffffffffffffffffffffff1661168384610730565b73ffffffffffffffffffffffffffffffffffffffff16145b806116ac57506116ab81856112a4565b5b91505092915050565b8273ffffffffffffffffffffffffffffffffffffffff166116d582610cfc565b73ffffffffffffffffffffffffffffffffffffffff161461172b576040517f08c379a000000000000000000000000000000000000000000000000000000000815260040161172290613819565b60405180910390fd5b600073ffffffffffffffffffffffffffffffffffffffff168273ffffffffffffffffffffffffffffffffffffffff16141561179b576040517f08c379a0000000000000000000000000000000000000000000000000000000008152600401611792906138ab565b60405180910390fd5b6117a6838383611dd5565b6117b160008261151e565b6001600360008573ffffffffffffffffffffffffffffffffffffffff1673ffffffffffffffffffffffffffffffffffffffff168152602001908152602001600020600082825461180191906138cb565b925050819055506001600360008473ffffffffffffffffffffffffffffffffffffffff1673ffffffffffffffffffffffffffffffffffffffff16815260200190815260200160002060008282546118589190613362565b92505081905550816002600083815260200190815260200160002060006101000a81548173ffffffffffffffffffffffffffffffffffffffff021916908373ffffffffffffffffffffffffffffffffffffffff160217905550808273ffffffffffffffffffffffffffffffffffffffff168473ffffffffffffffffffffffffffffffffffffffff167fddf252ad1be2c89b69c2b068fc378daa952ba7f163c4a11628f55a4df523b3ef60405160405180910390a4611917838383611de5565b505050565b6000600a60009054906101000a900473ffffffffffffffffffffffffffffffffffffffff16905081600a60006101000a81548173ffffffffffffffffffffffffffffffffffffffff021916908373ffffffffffffffffffffffffffffffffffffffff1602179055508173ffffffffffffffffffffffffffffffffffffffff168173ffffffffffffffffffffffffffffffffffffffff167f8be0079c531659141344cd1fd0a4f28419497f9722a3daafe3b4186f6b6457e060405160405180910390a35050565b8173ffffffffffffffffffffffffffffffffffffffff168373ffffffffffffffffffffffffffffffffffffffff161415611a51576040517f08c379a0000000000000000000000000000000000000000000000000000000008152600401611a489061394b565b60405180910390fd5b80600560008573ffffffffffffffffffffffffffffffffffffffff1673ffffffffffffffffffffffffffffffffffffffff16815260200190815260200160002060008473ffffffffffffffffffffffffffffffffffffffff1673ffffffffffffffffffffffffffffffffffffffff16815260200190815260200160002060006101000a81548160ff0219169083151502179055508173ffffffffffffffffffffffffffffffffffffffff168373ffffffffffffffffffffffffffffffffffffffff167f17307eab39ab6107e8899845ad3d59bd9653f200f220920489ca2b5937696c3183604051611b4291906127aa565b60405180910390a3505050565b611b5a8484846116b5565b611b6684848484611dea565b611ba5576040517f08c379a0000000000000000000000000000000000000000000000000000000008152600401611b9c906139dd565b60405180910390fd5b50505050565b6060600d8054611bba90612e2e565b80601f0160208091040260200160405190810160405280929190818152602001828054611be690612e2e565b8015611c335780601f10611c0857610100808354040283529160200191611c33565b820191906000526020600020905b815481529060010190602001808311611c1657829003601f168201915b5050505050905090565b6001816000016000828254019250508190555050565b600081600001549050919050565b611c7b828260405180602001604052806000815250611f72565b5050565b611c88826114aa565b611cc7576040517f08c379a0000000000000000000000000000000000000000000000000000000008152600401611cbe90613a6f565b60405180910390fd5b80600c60008481526020019081526020016000209080519060200190611cee929190612653565b505050565b60007f80ac58cd000000000000000000000000000000000000000000000000000000007bffffffffffffffffffffffffffffffffffffffffffffffffffffffff1916827bffffffffffffffffffffffffffffffffffffffffffffffffffffffff19161480611dbe57507f5b5e139f000000000000000000000000000000000000000000000000000000007bffffffffffffffffffffffffffffffffffffffffffffffffffffffff1916827bffffffffffffffffffffffffffffffffffffffffffffffffffffffff1916145b80611dce5750611dcd82611fcd565b5b9050919050565b611de0838383612037565b505050565b505050565b6000611e0b8473ffffffffffffffffffffffffffffffffffffffff1661214b565b15611f65578373ffffffffffffffffffffffffffffffffffffffff1663150b7a02611e34611516565b8786866040518563ffffffff1660e01b8152600401611e569493929190613ae4565b6020604051808303816000875af1925050508015611e9257506040513d601f19601f82011682018060405250810190611e8f9190613b45565b60015b611f15573d8060008114611ec2576040519150601f19603f3d011682016040523d82523d6000602084013e611ec7565b606091505b50600081511415611f0d576040517f08c379a0000000000000000000000000000000000000000000000000000000008152600401611f04906139dd565b60405180910390fd5b805181602001fd5b63150b7a0260e01b7bffffffffffffffffffffffffffffffffffffffffffffffffffffffff1916817bffffffffffffffffffffffffffffffffffffffffffffffffffffffff191614915050611f6a565b600190505b949350505050565b611f7c838361216e565b611f896000848484611dea565b611fc8576040517f08c379a0000000000000000000000000000000000000000000000000000000008152600401611fbf906139dd565b60405180910390fd5b505050565b60007f01ffc9a7000000000000000000000000000000000000000000000000000000007bffffffffffffffffffffffffffffffffffffffffffffffffffffffff1916827bffffffffffffffffffffffffffffffffffffffffffffffffffffffff1916149050919050565b612042838383612348565b600073ffffffffffffffffffffffffffffffffffffffff168373ffffffffffffffffffffffffffffffffffffffff161415612085576120808161234d565b6120c4565b8173ffffffffffffffffffffffffffffffffffffffff168373ffffffffffffffffffffffffffffffffffffffff16146120c3576120c28382612396565b5b5b600073ffffffffffffffffffffffffffffffffffffffff168273ffffffffffffffffffffffffffffffffffffffff1614156121075761210281612503565b612146565b8273ffffffffffffffffffffffffffffffffffffffff168273ffffffffffffffffffffffffffffffffffffffff16146121455761214482826125d4565b5b5b505050565b6000808273ffffffffffffffffffffffffffffffffffffffff163b119050919050565b600073ffffffffffffffffffffffffffffffffffffffff168273ffffffffffffffffffffffffffffffffffffffff1614156121de576040517f08c379a00000000000000000000000000000000000000000000000000000000081526004016121d590613bbe565b60405180910390fd5b6121e7816114aa565b15612227576040517f08c379a000000000000000000000000000000000000000000000000000000000815260040161221e90613c2a565b60405180910390fd5b61223360008383611dd5565b6001600360008473ffffffffffffffffffffffffffffffffffffffff1673ffffffffffffffffffffffffffffffffffffffff16815260200190815260200160002060008282546122839190613362565b92505081905550816002600083815260200190815260200160002060006101000a81548173ffffffffffffffffffffffffffffffffffffffff021916908373ffffffffffffffffffffffffffffffffffffffff160217905550808273ffffffffffffffffffffffffffffffffffffffff16600073ffffffffffffffffffffffffffffffffffffffff167fddf252ad1be2c89b69c2b068fc378daa952ba7f163c4a11628f55a4df523b3ef60405160405180910390a461234460008383611de5565b5050565b505050565b6008805490506009600083815260200190815260200160002081905550600881908060018154018082558091505060019003906000526020600020016000909190919091505550565b600060016123a384610dae565b6123ad91906138cb565b9050600060076000848152602001908152602001600020549050818114612492576000600660008673ffffffffffffffffffffffffffffffffffffffff1673ffffffffffffffffffffffffffffffffffffffff168152602001908152602001600020600084815260200190815260200160002054905080600660008773ffffffffffffffffffffffffffffffffffffffff1673ffffffffffffffffffffffffffffffffffffffff168152602001908152602001600020600084815260200190815260200160002081905550816007600083815260200190815260200160002081905550505b6007600084815260200190815260200160002060009055600660008573ffffffffffffffffffffffffffffffffffffffff1673ffffffffffffffffffffffffffffffffffffffff16815260200190815260200160002060008381526020019081526020016000206000905550505050565b6000600160088054905061251791906138cb565b9050600060096000848152602001908152602001600020549050600060088381548110612547576125466132a4565b5b906000526020600020015490508060088381548110612569576125686132a4565b5b9060005260206000200181905550816009600083815260200190815260200160002081905550600960008581526020019081526020016000206000905560088054806125b8576125b7613c4a565b5b6001900381819060005260206000200160009055905550505050565b60006125df83610dae565b905081600660008573ffffffffffffffffffffffffffffffffffffffff1673ffffffffffffffffffffffffffffffffffffffff168152602001908152602001600020600083815260200190815260200160002081905550806007600084815260200190815260200160002081905550505050565b82805461265f90612e2e565b90600052602060002090601f01602090048101928261268157600085556126c8565b82601f1061269a57805160ff19168380011785556126c8565b828001600101855582156126c8579182015b828111156126c75782518255916020019190600101906126ac565b5b5090506126d591906126d9565b5090565b5b808211156126f25760008160009055506001016126da565b5090565b6000604051905090565b600080fd5b600080fd5b60007fffffffff0000000000000000000000000000000000000000000000000000000082169050919050565b61273f8161270a565b811461274a57600080fd5b50565b60008135905061275c81612736565b92915050565b60006020828403121561277857612777612700565b5b60006127868482850161274d565b91505092915050565b60008115159050919050565b6127a48161278f565b82525050565b60006020820190506127bf600083018461279b565b92915050565b600081519050919050565b600082825260208201905092915050565b60005b838110156127ff5780820151818401526020810190506127e4565b8381111561280e576000848401525b50505050565b6000601f19601f8301169050919050565b6000612830826127c5565b61283a81856127d0565b935061284a8185602086016127e1565b61285381612814565b840191505092915050565b600060208201905081810360008301526128788184612825565b905092915050565b600073ffffffffffffffffffffffffffffffffffffffff82169050919050565b60006128ab82612880565b9050919050565b6128bb816128a0565b82525050565b60006020820190506128d660008301846128b2565b92915050565b6000819050919050565b6128ef816128dc565b81146128fa57600080fd5b50565b60008135905061290c816128e6565b92915050565b60006020828403121561292857612927612700565b5b6000612936848285016128fd565b91505092915050565b612948816128a0565b811461295357600080fd5b50565b6000813590506129658161293f565b92915050565b6000806040838503121561298257612981612700565b5b600061299085828601612956565b92505060206129a1858286016128fd565b9150509250929050565b6129b4816128dc565b82525050565b60006020820190506129cf60008301846129ab565b92915050565b6000806000606084860312156129ee576129ed612700565b5b60006129fc86828701612956565b9350506020612a0d86828701612956565b9250506040612a1e868287016128fd565b9150509250925092565b600080fd5b600080fd5b7f4e487b7100000000000000000000000000000000000000000000000000000000600052604160045260246000fd5b612a6a82612814565b810181811067ffffffffffffffff82111715612a8957612a88612a32565b5b80604052505050565b6000612a9c6126f6565b9050612aa88282612a61565b919050565b600067ffffffffffffffff821115612ac857612ac7612a32565b5b612ad182612814565b9050602081019050919050565b82818337600083830152505050565b6000612b00612afb84612aad565b612a92565b905082815260208101848484011115612b1c57612b1b612a2d565b5b612b27848285612ade565b509392505050565b600082601f830112612b4457612b43612a28565b5b8135612b54848260208601612aed565b91505092915050565b600060208284031215612b7357612b72612700565b5b600082013567ffffffffffffffff811115612b9157612b90612705565b5b612b9d84828501612b2f565b91505092915050565b600060208284031215612bbc57612bbb612700565b5b6000612bca84828501612956565b91505092915050565b612bdc8161278f565b8114612be757600080fd5b50565b600081359050612bf981612bd3565b92915050565b60008060408385031215612c1657612c15612700565b5b6000612c2485828601612956565b9250506020612c3585828601612bea565b9150509250929050565b600067ffffffffffffffff821115612c5a57612c59612a32565b5b612c6382612814565b9050602081019050919050565b6000612c83612c7e84612c3f565b612a92565b905082815260208101848484011115612c9f57612c9e612a2d565b5b612caa848285612ade565b509392505050565b600082601f830112612cc757612cc6612a28565b5b8135612cd7848260208601612c70565b91505092915050565b60008060008060808587031215612cfa57612cf9612700565b5b6000612d0887828801612956565b9450506020612d1987828801612956565b9350506040612d2a878288016128fd565b925050606085013567ffffffffffffffff811115612d4b57612d4a612705565b5b612d5787828801612cb2565b91505092959194509250565b60008060408385031215612d7a57612d79612700565b5b6000612d8885828601612956565b925050602083013567ffffffffffffffff811115612da957612da8612705565b5b612db585828601612b2f565b9150509250929050565b60008060408385031215612dd657612dd5612700565b5b6000612de485828601612956565b9250506020612df585828601612956565b9150509250929050565b7f4e487b7100000000000000000000000000000000000000000000000000000000600052602260045260246000fd5b60006002820490506001821680612e4657607f821691505b60208210811415612e5a57612e59612dff565b5b50919050565b7f4552433732313a20617070726f76656420717565727920666f72206e6f6e657860008201527f697374656e7420746f6b656e0000000000000000000000000000000000000000602082015250565b6000612ebc602c836127d0565b9150612ec782612e60565b604082019050919050565b60006020820190508181036000830152612eeb81612eaf565b9050919050565b7f4552433732313a20617070726f76616c20746f2063757272656e74206f776e6560008201527f7200000000000000000000000000000000000000000000000000000000000000602082015250565b6000612f4e6021836127d0565b9150612f5982612ef2565b604082019050919050565b60006020820190508181036000830152612f7d81612f41565b9050919050565b7f4552433732313a20617070726f76652063616c6c6572206973206e6f74206f7760008201527f6e6572206e6f7220617070726f76656420666f7220616c6c0000000000000000602082015250565b6000612fe06038836127d0565b9150612feb82612f84565b604082019050919050565b6000602082019050818103600083015261300f81612fd3565b9050919050565b7f4552433732313a207472616e736665722063616c6c6572206973206e6f74206f60008201527f776e6572206e6f7220617070726f766564000000000000000000000000000000602082015250565b60006130726031836127d0565b915061307d82613016565b604082019050919050565b600060208201905081810360008301526130a181613065565b9050919050565b7f455243373231456e756d657261626c653a206f776e657220696e646578206f7560008201527f74206f6620626f756e6473000000000000000000000000000000000000000000602082015250565b6000613104602b836127d0565b915061310f826130a8565b604082019050919050565b60006020820190508181036000830152613133816130f7565b9050919050565b7f4f776e61626c653a2063616c6c6572206973206e6f7420746865206f776e6572600082015250565b60006131706020836127d0565b915061317b8261313a565b602082019050919050565b6000602082019050818103600083015261319f81613163565b9050919050565b7f42616c616e636520697320300000000000000000000000000000000000000000600082015250565b60006131dc600c836127d0565b91506131e7826131a6565b602082019050919050565b6000602082019050818103600083015261320b816131cf565b9050919050565b7f455243373231456e756d657261626c653a20676c6f62616c20696e646578206f60008201527f7574206f6620626f756e64730000000000000000000000000000000000000000602082015250565b600061326e602c836127d0565b915061327982613212565b604082019050919050565b6000602082019050818103600083015261329d81613261565b9050919050565b7f4e487b7100000000000000000000000000000000000000000000000000000000600052603260045260246000fd5b7f4e487b7100000000000000000000000000000000000000000000000000000000600052601260045260246000fd5b7f4e487b7100000000000000000000000000000000000000000000000000000000600052601160045260246000fd5b600061333c826128dc565b9150613347836128dc565b925082613357576133566132d3565b5b828204905092915050565b600061336d826128dc565b9150613378836128dc565b9250827fffffffffffffffffffffffffffffffffffffffffffffffffffffffffffffffff038211156133ad576133ac613302565b5b828201905092915050565b7f4552433732313a206f776e657220717565727920666f72206e6f6e657869737460008201527f656e7420746f6b656e0000000000000000000000000000000000000000000000602082015250565b60006134146029836127d0565b915061341f826133b8565b604082019050919050565b6000602082019050818103600083015261344381613407565b9050919050565b7f4552433732313a2062616c616e636520717565727920666f7220746865207a6560008201527f726f206164647265737300000000000000000000000000000000000000000000602082015250565b60006134a6602a836127d0565b91506134b18261344a565b604082019050919050565b600060208201905081810360008301526134d581613499565b9050919050565b7f4552433732314d657461646174613a2055524920717565727920666f72206e6f60008201527f6e6578697374656e7420746f6b656e0000000000000000000000000000000000602082015250565b6000613538602f836127d0565b9150613543826134dc565b604082019050919050565b600060208201905081810360008301526135678161352b565b9050919050565b600081905092915050565b6000613584826127c5565b61358e818561356e565b935061359e8185602086016127e1565b80840191505092915050565b60006135b68285613579565b91506135c28284613579565b91508190509392505050565b6000819050919050565b6135e96135e4826128dc565b6135ce565b82525050565b60006135fb8285613579565b915061360782846135d8565b6020820191508190509392505050565b7f43616e2774206d696e206d6f72652e0000000000000000000000000000000000600082015250565b600061364d600f836127d0565b915061365882613617565b602082019050919050565b6000602082019050818103600083015261367c81613640565b9050919050565b7f4f776e61626c653a206e6577206f776e657220697320746865207a65726f206160008201527f6464726573730000000000000000000000000000000000000000000000000000602082015250565b60006136df6026836127d0565b91506136ea82613683565b604082019050919050565b6000602082019050818103600083015261370e816136d2565b9050919050565b7f4552433732313a206f70657261746f7220717565727920666f72206e6f6e657860008201527f697374656e7420746f6b656e0000000000000000000000000000000000000000602082015250565b6000613771602c836127d0565b915061377c82613715565b604082019050919050565b600060208201905081810360008301526137a081613764565b9050919050565b7f4552433732313a207472616e736665722066726f6d20696e636f72726563742060008201527f6f776e6572000000000000000000000000000000000000000000000000000000602082015250565b60006138036025836127d0565b915061380e826137a7565b604082019050919050565b60006020820190508181036000830152613832816137f6565b9050919050565b7f4552433732313a207472616e7366657220746f20746865207a65726f2061646460008201527f7265737300000000000000000000000000000000000000000000000000000000602082015250565b60006138956024836127d0565b91506138a082613839565b604082019050919050565b600060208201905081810360008301526138c481613888565b9050919050565b60006138d6826128dc565b91506138e1836128dc565b9250828210156138f4576138f3613302565b5b828203905092915050565b7f4552433732313a20617070726f766520746f2063616c6c657200000000000000600082015250565b60006139356019836127d0565b9150613940826138ff565b602082019050919050565b6000602082019050818103600083015261396481613928565b9050919050565b7f4552433732313a207472616e7366657220746f206e6f6e20455243373231526560008201527f63656976657220696d706c656d656e7465720000000000000000000000000000602082015250565b60006139c76032836127d0565b91506139d28261396b565b604082019050919050565b600060208201905081810360008301526139f6816139ba565b9050919050565b7f4552433732314d657461646174613a2055524920736574206f66206e6f6e657860008201527f697374656e7420746f6b656e0000000000000000000000000000000000000000602082015250565b6000613a59602c836127d0565b9150613a64826139fd565b604082019050919050565b60006020820190508181036000830152613a8881613a4c565b9050919050565b600081519050919050565b600082825260208201905092915050565b6000613ab682613a8f565b613ac08185613a9a565b9350613ad08185602086016127e1565b613ad981612814565b840191505092915050565b6000608082019050613af960008301876128b2565b613b0660208301866128b2565b613b1360408301856129ab565b8181036060830152613b258184613aab565b905095945050505050565b600081519050613b3f81612736565b92915050565b600060208284031215613b5b57613b5a612700565b5b6000613b6984828501613b30565b91505092915050565b7f4552433732313a206d696e7420746f20746865207a65726f2061646472657373600082015250565b6000613ba86020836127d0565b9150613bb382613b72565b602082019050919050565b60006020820190508181036000830152613bd781613b9b565b9050919050565b7f4552433732313a20746f6b656e20616c7265616479206d696e74656400000000600082015250565b6000613c14601c836127d0565b9150613c1f82613bde565b602082019050919050565b60006020820190508181036000830152613c4381613c07565b9050919050565b7f4e487b7100000000000000000000000000000000000000000000000000000000600052603160045260246000fdfea264697066735822122095f9b68ee62e9dcbf9a23be15d21a2a8e3ba1e679a0c75e79e75c2ce2d55985064736f6c634300080b0033",
  "immutableReferences": {},
  "source": "pragma solidity ^0.8.4;\r\n\r\nimport \"@openzeppelin/contracts/utils/Counters.sol\";\r\nimport \"@openzeppelin/contracts/token/ERC721/ERC721.sol\";\r\nimport \"@openzeppelin/contracts/token/ERC721/extensions/ERC721Enumerable.sol\";\r\nimport \"@openzeppelin/contracts/token/ERC721/extensions/IERC721Metadata.sol\";\r\nimport \"@openzeppelin/contracts/token/ERC721/extensions/ERC721URIStorage.sol\";\r\n\r\nimport \"@openzeppelin/contracts/access/Ownable.sol\";\r\n\r\ncontract NewNFT is ERC721, ERC721Enumerable, Ownable {\r\n\tusing Counters for Counters.Counter;\r\n\r\n\tCounters.Counter private _tokenIdCounter;\r\n\r\n\tmapping(uint256 => string) private _tokenURIs;\r\n\r\n\tstring private _baseURIextended;\r\n\r\n\taddress public minter;\r\n\r\n\tuint256 public balances;\r\n\r\n\t// mapping(address => uint256) private balances;\r\n\r\n\tuint256 public minRate = 0.005 ether;\r\n\tuint256 public MAX_SUPPLY = 10000;\r\n\r\n\tconstructor() ERC721(\"AR NFT Brazil\", \"AR\") {\r\n\t\tminter = msg.sender;\r\n\t}\r\n\r\n\tfunction setBaseURI(string memory baseURI_) external onlyOwner {\r\n\t\t_baseURIextended = baseURI_;\r\n\t}\r\n\r\n\tfunction _setTokenURI(uint256 tokenId, string memory _tokenURI)\r\n\t\tinternal\r\n\t\tvirtual\r\n\t{\r\n\t\trequire(\r\n\t\t\t_exists(tokenId),\r\n\t\t\t\"ERC721Metadata: URI set of nonexistent token\"\r\n\t\t);\r\n\t\t_tokenURIs[tokenId] = _tokenURI;\r\n\t}\r\n\r\n\tfunction _baseURI() internal view virtual override returns (string memory) {\r\n\t\treturn _baseURIextended;\r\n\t}\r\n\r\n\tfunction safeMint(address to, string memory tokenURI_)\r\n\t\texternal\r\n\t\tpayable\r\n\t\tonlyOwner\r\n\t{\r\n\t\trequire(totalSupply() < MAX_SUPPLY, \"Can't min more.\");\r\n\t\t// require(msg.value >= minRate, \"Not enough ether sent.\");\r\n\t\t_tokenIdCounter.increment();\r\n\t\tuint256 tokenId = _tokenIdCounter.current();\r\n\t\t_safeMint(to, tokenId);\r\n\t\t_setTokenURI(tokenId, tokenURI_);\r\n\r\n\t\tbalances += msg.value;\r\n\t}\r\n\r\n\tfunction tokenURI(uint256 tokenId)\r\n\t\tpublic\r\n\t\tview\r\n\t\tvirtual\r\n\t\toverride\r\n\t\treturns (string memory)\r\n\t{\r\n\t\trequire(\r\n\t\t\t_exists(tokenId),\r\n\t\t\t\"ERC721Metadata: URI query for nonexistent token\"\r\n\t\t);\r\n\r\n\t\tstring memory _tokenURI = _tokenURIs[tokenId];\r\n\t\tstring memory base = _baseURI();\r\n\r\n\t\t// If there is no base URI, return the token URI.\r\n\t\tif (bytes(base).length == 0) {\r\n\t\t\treturn _tokenURI;\r\n\t\t}\r\n\t\t// If both are set, concatenate the baseURI and tokenURI (via abi.encodePacked).\r\n\t\tif (bytes(_tokenURI).length > 0) {\r\n\t\t\treturn string(abi.encodePacked(base, _tokenURI));\r\n\t\t}\r\n\t\t// If there is a baseURI but no tokenURI, concatenate the tokenID to the baseURI.\r\n\t\treturn string(abi.encodePacked(base, tokenId));\r\n\t}\r\n\r\n\t// transferFrom\r\n\r\n\tfunction _beforeTokenTransfer(\r\n\t\taddress from,\r\n\t\taddress to,\r\n\t\tuint256 tokenId\r\n\t) internal override(ERC721, ERC721Enumerable) {\r\n\t\tsuper._beforeTokenTransfer(from, to, tokenId);\r\n\t}\r\n\r\n\tfunction supportsInterface(bytes4 interfaceId)\r\n\t\tpublic\r\n\t\tview\r\n\t\toverride(ERC721, ERC721Enumerable)\r\n\t\treturns (bool)\r\n\t{\r\n\t\treturn super.supportsInterface(interfaceId);\r\n\t}\r\n\r\n\t// Receive all balances;\r\n\tfunction withdraw() public onlyOwner {\r\n\t\trequire(balances > 0, \"Balance is 0\");\r\n\t\tpayable(owner()).transfer(balances);\r\n\t}\r\n\r\n\tfunction buyNFT(uint256 tokenId) public payable {\r\n\t\trequire(\r\n\t\t\t_isApprovedOrOwner(address(this), tokenId),\r\n\t\t\t\"ERC721: transfer caller is not owner nor approved\"\r\n\t\t);\r\n\t\tuint256 amount = (msg.value / 2);\r\n\t\taddress owner = ownerOf(tokenId);\r\n\t\t_transfer(owner, msg.sender, tokenId);\r\n\t\tbalances += amount;\r\n\t\tpayable(owner).transfer(amount);\r\n\t}\r\n}\r\n",
  "sourcePath": "F:\\LabLuby\\Blockchain_Crypto_LubyGame\\contracts\\NewNFT.sol",
  "compiler": {
    "name": "solc",
    "version": "0.8.11+commit.d7f03943.Emscripten.clang"
  },
  "schemaVersion": "3.4.10",
  "updatedAt": "2022-10-25T16:00:38.829Z",
  "networkType": "ethereum",
  "devdoc": {
    "kind": "dev",
    "methods": {
      "approve(address,uint256)": {
        "details": "See {IERC721-approve}."
      },
      "balanceOf(address)": {
        "details": "See {IERC721-balanceOf}."
      },
      "getApproved(uint256)": {
        "details": "See {IERC721-getApproved}."
      },
      "isApprovedForAll(address,address)": {
        "details": "See {IERC721-isApprovedForAll}."
      },
      "name()": {
        "details": "See {IERC721Metadata-name}."
      },
      "owner()": {
        "details": "Returns the address of the current owner."
      },
      "ownerOf(uint256)": {
        "details": "See {IERC721-ownerOf}."
      },
      "renounceOwnership()": {
        "details": "Leaves the contract without owner. It will not be possible to call `onlyOwner` functions anymore. Can only be called by the current owner. NOTE: Renouncing ownership will leave the contract without an owner, thereby removing any functionality that is only available to the owner."
      },
      "safeTransferFrom(address,address,uint256)": {
        "details": "See {IERC721-safeTransferFrom}."
      },
      "safeTransferFrom(address,address,uint256,bytes)": {
        "details": "See {IERC721-safeTransferFrom}."
      },
      "setApprovalForAll(address,bool)": {
        "details": "See {IERC721-setApprovalForAll}."
      },
      "symbol()": {
        "details": "See {IERC721Metadata-symbol}."
      },
      "tokenByIndex(uint256)": {
        "details": "See {IERC721Enumerable-tokenByIndex}."
      },
      "tokenOfOwnerByIndex(address,uint256)": {
        "details": "See {IERC721Enumerable-tokenOfOwnerByIndex}."
      },
      "tokenURI(uint256)": {
        "details": "See {IERC721Metadata-tokenURI}."
      },
      "totalSupply()": {
        "details": "See {IERC721Enumerable-totalSupply}."
      },
      "transferFrom(address,address,uint256)": {
        "details": "See {IERC721-transferFrom}."
      },
      "transferOwnership(address)": {
        "details": "Transfers ownership of the contract to a new account (`newOwner`). Can only be called by the current owner."
      }
    },
    "version": 1
  },
  "userdoc": {
    "kind": "user",
    "methods": {},
    "version": 1
  }
}